:100000000C9463000C948B000C948B000C948B006C
:100010000C948B000C948B000C948B000C94230696
:100020000C948B000C948B000C948B000C948B0024
:100030000C948B000C948B000C948B000C948B0014
:100040000C94D7060C948B000C94A5060C947F0698
:100050000C948B000C948B000C948B000C948B00F4
:100060000C948B000C948B000000000024002700EF
:100070002A000000000023002600290000000008DC
:10008000000201000003040700000000000000005F
:10009000010204081020408001020408102001021F
:1000A0000408102000000000250028002B00040494
:1000B0000404040404040202020202020303030310
:1000C00003030200210711241FBECFEFD8E0DEBFDB
:1000D000CDBF11E0A0E0B1E0E2E0F4E102C00590A4
:1000E0000D92A63DB107D9F725E0A6EDB1E001C01C
:1000F0001D92AE3CB207E1F710E0C3E6D0E004C0C9
:100100002197FE010E94F909C236D107C9F70E9462
:100110006B070C94FF090C940000AF92BF92CF9232
:10012000DF92EF92FF920F931F93CF93DF936C01B7
:100130007B018B01040F151FEB015E01AE18BF0898
:10014000C017D10759F06991D601ED91FC9101904A
:10015000F081E02DC6010995892B79F7C501DF9162
:10016000CF911F910F91FF90EF90DF90CF90BF90B4
:10017000AF900895FC01538D448D252F30E0842FDE
:1001800090E0821B930B541710F0CF9608950197BF
:100190000895FC01918D828D981761F0A28DAE0FAC
:1001A000BF2FB11D5D968C91928D9F5F9F73928F33
:1001B00090E008958FEF9FEF0895FC01918D828D5F
:1001C000981731F0828DE80FF11D858D90E008952C
:1001D0008FEF9FEF0895FC01918D228D892F90E084
:1001E000805C9F4F821B91098F739927089589E145
:1001F00095E00E94EB0021E0892B09F420E0822F9A
:10020000089580E090E0892B29F00E94F700811189
:100210000C9400000895FC01A48DA80FB92FB11D06
:10022000A35ABF4F2C91848D90E001968F7399272C
:10023000848FA689B7892C93A089B1898C9183700A
:1002400080648C93938D848D981306C00288F38903
:10025000E02D80818F7D80830895EF92FF920F9330
:100260001F93CF93DF93EC0181E0888F9B8D8C8D62
:1002700098131AC0E889F989808185FF15C09FB756
:10028000F894EE89FF896083E889F9898081837019
:10029000806480839FBF81E090E0DF91CF911F91C8
:1002A0000F91FF90EF900895F62E0B8D10E00F5FE9
:1002B0001F4F0F731127E02E8C8D8E110CC00FB6BF
:1002C00007FCFACFE889F989808185FFF5CFCE0157
:1002D0000E940B01F1CFEB8DEC0FFD2FF11DE35AC6
:1002E000FF4FF0829FB7F8940B8FEA89FB898081DA
:1002F0008062CFCFCF93DF93EC01888D8823B9F054
:10030000AA89BB89E889F9898C9185FD03C0808120
:1003100086FD0DC00FB607FCF7CF8C9185FFF2CF9D
:10032000808185FFEDCFCE010E940B01E9CFDF91E7
:10033000CF910895833081F028F4813099F0823094
:10034000A9F008958730A9F08830C9F08430B1F45D
:10035000809180008F7D03C0809180008F77809393
:100360008000089584B58F7784BD089584B58F7D0E
:10037000FBCF8091B0008F778093B000089580917B
:10038000B0008F7DF9CFCF93DF93E2E8F0E0849166
:10039000E6E9F0E0D491E4EBF0E0C491CC23A1F0E5
:1003A00081110E949A01EC2FF0E0EE0FFF1FEE5832
:1003B000FF4FA591B491EC91ED2381E090E009F419
:1003C00080E0DF91CF91089580E090E0FACF1F9315
:1003D000CF93DF93282F30E0F901E458FF4F849149
:1003E000F901E057FF4FD491F901E255FF4FC49155
:1003F000CC23A9F0162F81110E949A01EC2FF0E076
:10040000EE0FFF1FEC55FF4FA591B4918FB7F894F5
:10041000EC91111108C0D095DE23DC938FBFDF91E2
:10042000CF911F910895DE2BF8CF90910001891391
:100430000BC0E2ECF0E0E4919FEF90930001E1301B
:1004400049F028F0E23061F060E00C94E70110928E
:100450006E00FACF90916F009D7F90936F00F4CF64
:10046000909170009D7F9093700091E09093B00008
:100470009091B100987F94609093B1001092B30076
:10048000E3CFCF93DF9390E0FC01E057FF4F24913F
:1004900082559F4FFC0184918823D1F090E0880F12
:1004A000991FFC01E859FF4FA591B491FC01EC554F
:1004B000FF4FC591D49161110EC09FB7F8948C91F4
:1004C000E22FE0958E238C932881E223E8839FBF5F
:1004D000DF91CF9108958FB7F894EC91E22BEC93D4
:1004E0008FBFF6CF8F929F92AF92BF92CF92DF9243
:1004F000EF92FF92CF936C0180910001873069F0F9
:100500008F3F09F470C0CF91FF90EF90DF90CF90B4
:10051000BF90AF909F908F900895E2ECF0E0C4916F
:10052000C7FDF1CF61E087E00E944102CC2319F0C2
:10053000C23009F022C1F12CE12C60E072E18AE7BF
:1005400090E0A70196010E94DA0949015A01DA01F7
:10055000C9010197A109B1098F3F9105A105B10515
:1005600009F00CF4EEC060E472E48FE090E0A701C3
:1005700096010E94DA092150310941095109C2301E
:1005800009F0A0C082E02F3F31054105510509F077
:100590000CF488C160E970ED83E090E0A70196015A
:1005A0000E94DA09215031094109510983E02F3FA6
:1005B00031054105510509F00CF474C168E478EE89
:1005C00081E090E0A70196010E94DA0921503109EB
:1005D000410951092F3F31054105510511F00CF03A
:1005E0008FC084E05FC187E080930001E2ECF0E01F
:1005F000C491CF3F09F487CFC13021F150F0C23010
:1006000009F43EC0C7FD7FCF61E087E00E94410250
:100610008FCF14BC15BC84B5826084BD85B5816064
:1006200085BDE5EBF0E0E491F0E0EE0FFF1FEC5547
:10063000FF4F85919491E7E9F0E0E491E0930C0598
:10064000C0E070CF109280001092810080918100F4
:100650008860809381008091810081608093810017
:10066000E5EBF0E0E491F0E0EE0FFF1FEC55FF4FFB
:1006700085919491E7E9F0E0E491E0930B0552CF86
:100680001092B0001092B1008091B000826080930F
:10069000B0008091B10081608093B100E5EBF0E0A3
:1006A000E491F0E0EE0FFF1FEC55FF4F8591949120
:1006B00090930A0580930905E7E9F0E0E491E0935F
:1006C000080530CF2F3F31054105510509F00CF4E5
:1006D00052C068E478EE81E090E0A70196010E94A4
:1006E000DA092150310941095109CC2309F4AFC07D
:1006F0002F3F31054105510511F00CF0B0C071CF0D
:1007000064E274EF80E090E0A70196010E94DA09AC
:10071000215031094109510985E02F3F310541053B
:10072000510509F008F4BEC062E17AE780E090E08C
:10073000A70196010E94DA092150310941095109A6
:100740009CC09C0181E0C111ADC095B5987F892BFB
:1007500085BD27BD8FEF9FEFDC018093150590933A
:100760001605A0931705B093180580916E0082605E
:1007700080936E00C8CE82E0E6CFF12CE12C60E0E1
:1007800072E18AE790E0A70196010E94DA09215000
:1007900031094109510991E02115310581E04807EE
:1007A00051056CF068E478EE81E090E0A7019601D5
:1007B0000E94DA09215031094109510993E0C13001
:1007C00009F076C080918100887F892B8093810019
:1007D00030938900209388008FEF9FEFDC01809396
:1007E000110590931205A0931305B0931405809101
:1007F0006F00826080936F0086CE2093B3008FEFEE
:100800009FEFDC0180930D0590930E05A0930F05DB
:10081000B09310058091700082608093700073CE59
:1008200084E02F3F31054105510509F008F48DCFD3
:100830009AE0B594A794979487949A95D1F7A501D7
:100840009401215031094109510985E07ECF83E0AF
:100850002F3F31054105510509F00CF476CF62E1D7
:100860007AE780E090E0A70196010E94DA09215022
:10087000310941095109CC2399F286E02F3F310516
:100880004105510579F070F08AE0B594A7949794EA
:1008900087948A95D1F7A501940121503109410926
:1008A000510987E09091B100987F892B8093B10026
:1008B000C13009F48DCFC23009F49FCFC11123CECE
:1008C00048CF3FB7F8948091D7019091D801A0917B
:1008D000D901B091DA0126B5A89B05C02F3F19F0C8
:1008E0000196A11DB11D3FBFBA2FA92F982F8827B0
:1008F000BC01CD01620F711D811D911D42E0660F8B
:10090000771F881F991F4A95D1F708958F929F925C
:10091000AF92BF92CF92DF92EF92FF926B017C0178
:100920000E9461044B015C01C114D104E104F10493
:10093000B9F00E946104681979098A099B09683E27
:1009400073408105910580F321E0C21AD108E108C6
:10095000F10888EE880E83E0981EA11CB11CE4CF3C
:10096000FF90EF90DF90CF90BF90AF909F908F90CF
:100970000895089590E080E00895FC010190002022
:10098000E9F73197AF01481B590BBC0186EB95E0A5
:100990000C948D00CF93DF93EC0160E08E810E9478
:1009A000E70161E08E810E94E70160E08E810E9494
:1009B000E7018BE891E00197F1F7DF91CF9108957E
:1009C000CF92DF92EF92FF920F931F93CF93DF931B
:1009D0006C017C0187E0E80EF11CD0E0C0E0062F3E
:1009E00010E0B8010C2E02C0759567950A94E2F7E5
:1009F0006170F70181917F010E94E7012196C43067
:100A0000D10579F7C601DF91CF911F910F91FF902A
:100A1000EF90DF90CF900C94CA04CF92DF92EF92C8
:100A2000FF920F931F93CF93DF93EC01F62E642F69
:100A30008C810E94E7018D818F3F19F060E00E9458
:100A4000E7010F2D10E08F8584FF25C06E0187E040
:100A5000C80ED11CF12CE12CB8010E2C02C07595EA
:100A600067950A94E2F76170F60181916F010E9427
:100A7000E701FFEFEF1AFF0A88E0E816F10461F7DB
:100A8000CE01DF91CF911F910F91FF90EF90DF90FA
:100A9000CF900C94CA04B80184E0759567958A9547
:100AA000E1F7CE010E94E0046F2DCE01DF91CF91DE
:100AB0001F910F91FF90EF90DF90CF900C94E00486
:100AC00040E0682F86EB95E00C940D0581E00E94D4
:100AD00060058BE39FE10197F1F70895CF93DF93D2
:100AE000823029F49091C50598609093C505809354
:100AF000C9051092CA0580E48093CB0580E18093FC
:100B0000CC0580E58093CD0561E08091BA050E9417
:100B100041028091BB058F3F19F061E00E944102C4
:100B200061E08091BC050E944102C6EBD5E09E01C8
:100B3000265B35408091C50584FD0BC084E090E0C4
:100B400021962817390744F461E08E810E94410202
:100B5000EECF88E090E0F4CF8BE39DE00197F1F7D2
:100B600060E08091BA050E94E70160E08091BC05D9
:100B70000E94E7018091BB058F3F19F060E00E9461
:100B8000E7018091C50584FD34C063E086EB95E004
:100B90000E94E004CBE4D6E4CE010197F1F763E0D4
:100BA00086EB95E00E94E0042197F1F763E086EB85
:100BB00095E00E94E00483E592E00197F1F762E09E
:100BC00086EB95E00E94E0048091C50580620E945A
:100BD000600584E08093C6058CE00E9460050E9459
:100BE000660582E08093C70586E0DF91CF910C9483
:100BF000600580620E9460058BE496E40197F1F73E
:100C00008091C50580620E94600583E592E00197AE
:100C1000F1F78091C50580620E946005D5CF909163
:100C2000C905891710F08FEF890FE82FF0E0EA541B
:100C3000FA4F848980680C94600541E00E940D059C
:100C400081E090E008951F920F920FB60F92112449
:100C50002F933F934F935F936F937F938F939F93C4
:100C6000AF93BF93EF93FF9380910D0590910E0585
:100C7000A0910F05B0911005892B8A2B8B2BD1F1F8
:100C800090910805E0910905F0910A058081892776
:100C9000808380910D0590910E05A0910F05B09174
:100CA0001005181619061A061B069CF480910D05EE
:100CB00090910E05A0910F05B09110050197A10923
:100CC000B10980930D0590930E05A0930F05B09385
:100CD0001005FF91EF91BF91AF919F918F917F91FF
:100CE0006F915F914F913F912F910F900FBE0F9099
:100CF0001F901895809100010E941502EACF1F9263
:100D00000F920FB60F9211242F933F934F935F933F
:100D10006F937F938F939F93AF93BF93EF93FF93C3
:100D200089E195E00E940B01FF91EF91BF91AF9196
:100D30009F918F917F916F915F914F913F912F91F3
:100D40000F900FBE0F901F9018951F920F920FB625
:100D50000F9211242F938F939F93EF93FF93E09122
:100D60002905F0912A058081E0912F05F091300549
:100D700082FD1BC09081809132058F5F8F7320911F
:100D80003305821741F0E0913205F0E0E75EFA4F5B
:100D9000958F80933205FF91EF919F918F912F91C5
:100DA0000F900FBE0F901F9018958081F4CF1F9267
:100DB0000F920FB60F9211242F933F938F939F930F
:100DC000AF93BF938091DC019091DD01A091DE0192
:100DD000B091DF013091D60123E0230F2D3758F574
:100DE0000196A11DB11D2093D6018093DC01909343
:100DF000DD01A093DE01B093DF018091D7019091D6
:100E0000D801A091D901B091DA010196A11DB11DBF
:100E10008093D7019093D801A093D901B093DA01C0
:100E2000BF91AF919F918F913F912F910F900FBEE6
:100E30000F901F90189526E8230F0296A11DB11D53
:100E4000D2CFE9E1F5E01382128288EE93E0A0E0D0
:100E5000B0E084839583A683B78385E191E0918395
:100E6000808385EC90E09587848784EC90E0978779
:100E7000868780EC90E0918B808B81EC90E0938B67
:100E8000828B82EC90E0958B848B86EC90E0978B44
:100E9000868B118E128E138E148EE6EBF5E0138284
:100EA000128287E291E09183808388E084838FEFD0
:100EB000858389E086838AE087838BE080878CE066
:100EC00081878DE08287138614861586168617869D
:100ED00081E00C946E05789484B5826084BD84B5FD
:100EE000816084BD85B5826085BD85B5816085BD25
:100EF00080916E00816080936E00109281008091DD
:100F00008100826080938100809181008160809364
:100F10008100809180008160809380008091B10089
:100F200084608093B1008091B00081608093B000B4
:100F300080917A00846080937A0080917A00826048
:100F400080937A0080917A00816080937A0080910A
:100F50007A00806880937A001092C100E0912905A0
:100F6000F0912A0582E08083E0912505F091260525
:100F70001082E0912705F09128058FEC8083109274
:100F80003105E0912D05F0912E0586E08083E091FA
:100F90002B05F0912C05808180618083E0912B05E9
:100FA000F0912C05808188608083E0912B05F09181
:100FB0002C05808180688083E0912B05F0912C05C1
:100FC00080818F7D808360E086E00E94410282E024
:100FD0000E946E058FE291E00E94BD0481E00E94B4
:100FE0000F068DE391E00E94BD0460ED77E080E0A4
:100FF00090E00E9486040E94660550E4352E6AE067
:10100000862E912CA12CB12C70E0E72E70E0F72EEB
:10101000E8E05E2EF2E0DF2EA3E0CA2EB4E07B2EE5
:1010200015E006E047E0642E0E94C301892B81F1A0
:101030003AE0632E0E94C301019709F086C10E9425
:10104000660580E00E940F0687EC91E00E94BD04D7
:10105000C8E7D3E008EE11E0F5E0C830DF0751F350
:1010600089919991689EB001699E700D1124072E97
:10107000000C880B990B0E948604F80181919191D4
:101080008F01009709F057C187E00E941502E4CF55
:1010900080E00E940F0685E491E00E94BD0481E09B
:1010A0000E940F0630927C0080917A0080648093C9
:1010B0007A0080917A0086FDFCCF80917800909133
:1010C00079002091E701022E000C330B3093E601EA
:1010D0002093E501863242E094070CF042C1843F40
:1010E000E1E09E070CF024C1823CF1E09F070CF484
:1010F000FBC06092E7018091E701082E000C990B7C
:101100002817390709F453C021153105A1F0809142
:10111000DB01E82FEE0FFF0BE851FE4F31832083F8
:10112000E1E0E80FEE0FFF0BE851FE4F1182108255
:101130008E5F8093DB010E9466052FB7F894609163
:10114000DC017091DD018091DE019091DF012FBF04
:101150004090E001C42DCC0FDD0BC858DC4F20912E
:10116000E1013091E2014091E3015091E401621B01
:10117000730B840B950BA50194010E94B809398368
:10118000288343944092E0012FB7F8948091DC01CA
:101190009091DD01A091DE01B091DF012FBF80931E
:1011A000E1019093E201A093E301B093E401809107
:1011B000E701811107C087E00E94150281E591E0F7
:1011C0000E94BD048091E701813071F480EF90E0CE
:1011D0000E9472028EE591E00E94BD0462E370E01D
:1011E00080E090E00E9486048091E701823071F4F3
:1011F0008EE091E00E9472028BE691E00E94BD04B5
:1012000062E370E080E090E00E9486048091E70154
:10121000833071F48CE291E00E94720288E791E0E1
:101220000E94BD0462E370E080E090E00E948604CA
:101230008091E701843071F480E491E00E947202B1
:1012400085E891E00E94BD0462E370E080E090E0F8
:101250000E9486048091E701853071F488E691E070
:101260000E94720282E991E00E94BD0462E370E094
:1012700080E090E00E9486048091E701863071F45E
:1012800080E991E00E9472028FE991E00E94BD0422
:1012900062E370E080E090E00E9486048091E701C4
:1012A000873071F482EC91E00E9472028DEA91E045
:1012B0000E94BD0462E370E080E090E00E9486043A
:1012C0008091E701883009F0AFCE80EE91E00E9476
:1012D00072028AEB91E00E94BD0462E370E080E05C
:1012E00090E00E9486049DCE803941E094071CF076
:1012F0000093E70100CF8E35E1E09E071CF01093CC
:10130000E701F9CE8A3F91051CF07092E701F3CE18
:10131000863991051CF0C092E701EDCE8436910527
:101320001CF0D092E701E7CE81E08093E701E3CEA5
:101330005092E701E0CE880F991FFC01E150FF4F6A
:10134000808191810E94720287CEE114F10409F438
:1013500067CE0E94F700882309F462CE0E94000045
:101360005FCE893E93400CF422CF1092E701C3CEAA
:10137000A1E21A2EAA1BBB1BFD010DC0AA1FBB1F99
:10138000EE1FFF1FA217B307E407F50720F0A21B0B
:10139000B30BE40BF50B661F771F881F991F1A9478
:1013A00069F760957095809590959B01AC01BD01A2
:1013B000CF010895052E97FB1EF400940E94F109B9
:1013C00057FD07D00E94B80907FC03D04EF40C94D7
:1013D000F10950954095309521953F4F4F4F5F4F04
:1013E000089590958095709561957F4F8F4F9F4F91
:1013F0000895EE0FFF1F0590F491E02D0994F894E5
:02140000FFCF1C
:10140200FFF0000E012C01400168019001C201E0D1
:1014120001000000002D018D00BA007A01EB00C925
:1014220000DD00000000001D068D00BA04B9044171
:10143200726475696E6F205069616E6F004D414E26
:101442004950414C005265636F7264696E672E2E7B
:101452000030202D3E2050617573652E2E00312004
:101462002D3E204E4F54455F53610032202D3E20C9
:101472004E4F54455F52650033202D3E204E4F544F
:10148200455F47610034202D3E204E4F54455F4D4D
:10149200610035202D3E204E4F54455F506100368D
:1014A200202D3E204E4F54455F4468610037202D69
:1014B2003E204E4F54455F4E690038202D3E204E4F
:1014C2004F54455F5361004E6F7720506C617969CC
:0614D2006E672E2E0000E3
:00000001FF
